{
  "_format": "hh-sol-artifact-1",
  "contractName": "NFTMarketplace",
  "sourceName": "contracts/NFTMarketplace.sol",
  "abi": [
    {
      "inputs": [
        {
          "internalType": "address",
          "name": "_feeRecipient",
          "type": "address"
        }
      ],
      "stateMutability": "nonpayable",
      "type": "constructor"
    },
    {
      "inputs": [
        {
          "internalType": "address",
          "name": "owner",
          "type": "address"
        }
      ],
      "name": "OwnableInvalidOwner",
      "type": "error"
    },
    {
      "inputs": [
        {
          "internalType": "address",
          "name": "account",
          "type": "address"
        }
      ],
      "name": "OwnableUnauthorizedAccount",
      "type": "error"
    },
    {
      "anonymous": false,
      "inputs": [
        {
          "indexed": true,
          "internalType": "uint256",
          "name": "listingId",
          "type": "uint256"
        },
        {
          "indexed": true,
          "internalType": "address",
          "name": "seller",
          "type": "address"
        },
        {
          "indexed": true,
          "internalType": "address",
          "name": "nft",
          "type": "address"
        },
        {
          "indexed": false,
          "internalType": "uint256",
          "name": "tokenId",
          "type": "uint256"
        },
        {
          "indexed": false,
          "internalType": "uint256",
          "name": "price",
          "type": "uint256"
        }
      ],
      "name": "Listed",
      "type": "event"
    },
    {
      "anonymous": false,
      "inputs": [
        {
          "indexed": true,
          "internalType": "uint256",
          "name": "listingId",
          "type": "uint256"
        }
      ],
      "name": "ListingCancelled",
      "type": "event"
    },
    {
      "anonymous": false,
      "inputs": [
        {
          "indexed": true,
          "internalType": "address",
          "name": "previousOwner",
          "type": "address"
        },
        {
          "indexed": true,
          "internalType": "address",
          "name": "newOwner",
          "type": "address"
        }
      ],
      "name": "OwnershipTransferred",
      "type": "event"
    },
    {
      "anonymous": false,
      "inputs": [
        {
          "indexed": true,
          "internalType": "uint256",
          "name": "listingId",
          "type": "uint256"
        },
        {
          "indexed": true,
          "internalType": "address",
          "name": "buyer",
          "type": "address"
        }
      ],
      "name": "Purchased",
      "type": "event"
    },
    {
      "inputs": [
        {
          "internalType": "uint256",
          "name": "listingId",
          "type": "uint256"
        }
      ],
      "name": "buyNFT",
      "outputs": [],
      "stateMutability": "payable",
      "type": "function"
    },
    {
      "inputs": [
        {
          "internalType": "uint256",
          "name": "listingId",
          "type": "uint256"
        }
      ],
      "name": "cancelListing",
      "outputs": [],
      "stateMutability": "nonpayable",
      "type": "function"
    },
    {
      "inputs": [],
      "name": "feeBasisPoints",
      "outputs": [
        {
          "internalType": "uint256",
          "name": "",
          "type": "uint256"
        }
      ],
      "stateMutability": "view",
      "type": "function"
    },
    {
      "inputs": [],
      "name": "feeRecipient",
      "outputs": [
        {
          "internalType": "address",
          "name": "",
          "type": "address"
        }
      ],
      "stateMutability": "view",
      "type": "function"
    },
    {
      "inputs": [
        {
          "internalType": "address",
          "name": "nft",
          "type": "address"
        },
        {
          "internalType": "uint256",
          "name": "tokenId",
          "type": "uint256"
        },
        {
          "internalType": "uint256",
          "name": "price",
          "type": "uint256"
        }
      ],
      "name": "listNFT",
      "outputs": [],
      "stateMutability": "nonpayable",
      "type": "function"
    },
    {
      "inputs": [
        {
          "internalType": "uint256",
          "name": "",
          "type": "uint256"
        }
      ],
      "name": "listings",
      "outputs": [
        {
          "internalType": "address",
          "name": "seller",
          "type": "address"
        },
        {
          "internalType": "address",
          "name": "nft",
          "type": "address"
        },
        {
          "internalType": "uint256",
          "name": "tokenId",
          "type": "uint256"
        },
        {
          "internalType": "uint256",
          "name": "price",
          "type": "uint256"
        },
        {
          "internalType": "bool",
          "name": "active",
          "type": "bool"
        }
      ],
      "stateMutability": "view",
      "type": "function"
    },
    {
      "inputs": [],
      "name": "nextListingId",
      "outputs": [
        {
          "internalType": "uint256",
          "name": "",
          "type": "uint256"
        }
      ],
      "stateMutability": "view",
      "type": "function"
    },
    {
      "inputs": [],
      "name": "owner",
      "outputs": [
        {
          "internalType": "address",
          "name": "",
          "type": "address"
        }
      ],
      "stateMutability": "view",
      "type": "function"
    },
    {
      "inputs": [],
      "name": "renounceOwnership",
      "outputs": [],
      "stateMutability": "nonpayable",
      "type": "function"
    },
    {
      "inputs": [
        {
          "internalType": "uint256",
          "name": "_feeBasisPoints",
          "type": "uint256"
        }
      ],
      "name": "setFee",
      "outputs": [],
      "stateMutability": "nonpayable",
      "type": "function"
    },
    {
      "inputs": [
        {
          "internalType": "address",
          "name": "_feeRecipient",
          "type": "address"
        }
      ],
      "name": "setFeeRecipient",
      "outputs": [],
      "stateMutability": "nonpayable",
      "type": "function"
    },
    {
      "inputs": [
        {
          "internalType": "address",
          "name": "newOwner",
          "type": "address"
        }
      ],
      "name": "transferOwnership",
      "outputs": [],
      "stateMutability": "nonpayable",
      "type": "function"
    }
  ],
  "bytecode": "0x608060405260fa6003553480156200001657600080fd5b506040516200190e3803806200190e83398181016040528101906200003c91906200023a565b33600073ffffffffffffffffffffffffffffffffffffffff168173ffffffffffffffffffffffffffffffffffffffff1603620000b25760006040517f1e4fbdf7000000000000000000000000000000000000000000000000000000008152600401620000a991906200027d565b60405180910390fd5b620000c3816200010c60201b60201c565b5080600460006101000a81548173ffffffffffffffffffffffffffffffffffffffff021916908373ffffffffffffffffffffffffffffffffffffffff160217905550506200029a565b60008060009054906101000a900473ffffffffffffffffffffffffffffffffffffffff169050816000806101000a81548173ffffffffffffffffffffffffffffffffffffffff021916908373ffffffffffffffffffffffffffffffffffffffff1602179055508173ffffffffffffffffffffffffffffffffffffffff168173ffffffffffffffffffffffffffffffffffffffff167f8be0079c531659141344cd1fd0a4f28419497f9722a3daafe3b4186f6b6457e060405160405180910390a35050565b600080fd5b600073ffffffffffffffffffffffffffffffffffffffff82169050919050565b60006200020282620001d5565b9050919050565b6200021481620001f5565b81146200022057600080fd5b50565b600081519050620002348162000209565b92915050565b600060208284031215620002535762000252620001d0565b5b6000620002638482850162000223565b91505092915050565b6200027781620001f5565b82525050565b60006020820190506200029460008301846200026c565b92915050565b61166480620002aa6000396000f3fe6080604052600436106100a75760003560e01c8063aaccf1ec11610064578063aaccf1ec14610187578063ad05f1b4146101b2578063b8606eef146101db578063de74e57b14610206578063e74b981b14610247578063f2fde38b14610270576100a7565b8063305a67a8146100ac57806346904840146100d557806351ed82881461010057806369fe0e2d1461011c578063715018a6146101455780638da5cb5b1461015c575b600080fd5b3480156100b857600080fd5b506100d360048036038101906100ce9190610efd565b610299565b005b3480156100e157600080fd5b506100ea61049c565b6040516100f79190610f6b565b60405180910390f35b61011a60048036038101906101159190610efd565b6104c2565b005b34801561012857600080fd5b50610143600480360381019061013e9190610efd565b6108a2565b005b34801561015157600080fd5b5061015a6108f9565b005b34801561016857600080fd5b5061017161090d565b60405161017e9190610f6b565b60405180910390f35b34801561019357600080fd5b5061019c610936565b6040516101a99190610f95565b60405180910390f35b3480156101be57600080fd5b506101d960048036038101906101d49190610fdc565b61093c565b005b3480156101e757600080fd5b506101f0610ba5565b6040516101fd9190610f95565b60405180910390f35b34801561021257600080fd5b5061022d60048036038101906102289190610efd565b610bab565b60405161023e95949392919061104a565b60405180910390f35b34801561025357600080fd5b5061026e6004803603810190610269919061109d565b610c2e565b005b34801561027c57600080fd5b506102976004803603810190610292919061109d565b610ce9565b005b60006002600083815260200190815260200160002090508060040160009054906101000a900460ff16610301576040517f08c379a00000000000000000000000000000000000000000000000000000000081526004016102f890611127565b60405180910390fd5b3373ffffffffffffffffffffffffffffffffffffffff168160000160009054906101000a900473ffffffffffffffffffffffffffffffffffffffff1673ffffffffffffffffffffffffffffffffffffffff1614610393576040517f08c379a000000000000000000000000000000000000000000000000000000000815260040161038a90611193565b60405180910390fd5b60008160040160006101000a81548160ff0219169083151502179055508060010160009054906101000a900473ffffffffffffffffffffffffffffffffffffffff1673ffffffffffffffffffffffffffffffffffffffff166323b872dd308360000160009054906101000a900473ffffffffffffffffffffffffffffffffffffffff1684600201546040518463ffffffff1660e01b8152600401610439939291906111b3565b600060405180830381600087803b15801561045357600080fd5b505af1158015610467573d6000803e3d6000fd5b50505050817f411aee90354c51b1b04cd563fcab2617142a9d50da19232d888547c8a1b7fd8a60405160405180910390a25050565b600460009054906101000a900473ffffffffffffffffffffffffffffffffffffffff1681565b60006002600083815260200190815260200160002090508060040160009054906101000a900460ff1661052a576040517f08c379a000000000000000000000000000000000000000000000000000000000815260040161052190611127565b60405180910390fd5b80600301543414610570576040517f08c379a000000000000000000000000000000000000000000000000000000000815260040161056790611236565b60405180910390fd5b60008160040160006101000a81548160ff0219169083151502179055506000612710600354346105a09190611285565b6105aa91906112f6565b9050600081346105ba9190611327565b905060008360000160009054906101000a900473ffffffffffffffffffffffffffffffffffffffff1673ffffffffffffffffffffffffffffffffffffffff16826040516106069061138c565b60006040518083038185875af1925050503d8060008114610643576040519150601f19603f3d011682016040523d82523d6000602084013e610648565b606091505b505090508061068c576040517f08c379a0000000000000000000000000000000000000000000000000000000008152600401610683906113ed565b60405180910390fd5b6000831180156106eb5750600073ffffffffffffffffffffffffffffffffffffffff16600460009054906101000a900473ffffffffffffffffffffffffffffffffffffffff1673ffffffffffffffffffffffffffffffffffffffff1614155b156107c0576000600460009054906101000a900473ffffffffffffffffffffffffffffffffffffffff1673ffffffffffffffffffffffffffffffffffffffff16846040516107389061138c565b60006040518083038185875af1925050503d8060008114610775576040519150601f19603f3d011682016040523d82523d6000602084013e61077a565b606091505b50509050806107be576040517f08c379a00000000000000000000000000000000000000000000000000000000081526004016107b590611459565b60405180910390fd5b505b8360010160009054906101000a900473ffffffffffffffffffffffffffffffffffffffff1673ffffffffffffffffffffffffffffffffffffffff166323b872dd303387600201546040518463ffffffff1660e01b8152600401610825939291906111b3565b600060405180830381600087803b15801561083f57600080fd5b505af1158015610853573d6000803e3d6000fd5b505050503373ffffffffffffffffffffffffffffffffffffffff16857fb47c52a971a941c629c2f7690d2a3bd407390d3c8eabc35473c70883a3d5da1660405160405180910390a35050505050565b6108aa610d6f565b6103e88111156108ef576040517f08c379a00000000000000000000000000000000000000000000000000000000081526004016108e6906114c5565b60405180910390fd5b8060038190555050565b610901610d6f565b61090b6000610df6565b565b60008060009054906101000a900473ffffffffffffffffffffffffffffffffffffffff16905090565b60015481565b6000811161097f576040517f08c379a000000000000000000000000000000000000000000000000000000000815260040161097690611531565b60405180910390fd5b8273ffffffffffffffffffffffffffffffffffffffff166323b872dd3330856040518463ffffffff1660e01b81526004016109bc939291906111b3565b600060405180830381600087803b1580156109d657600080fd5b505af11580156109ea573d6000803e3d6000fd5b50505050600060016000815480929190610a0390611551565b9190505590506040518060a001604052803373ffffffffffffffffffffffffffffffffffffffff1681526020018573ffffffffffffffffffffffffffffffffffffffff168152602001848152602001838152602001600115158152506002600083815260200190815260200160002060008201518160000160006101000a81548173ffffffffffffffffffffffffffffffffffffffff021916908373ffffffffffffffffffffffffffffffffffffffff16021790555060208201518160010160006101000a81548173ffffffffffffffffffffffffffffffffffffffff021916908373ffffffffffffffffffffffffffffffffffffffff160217905550604082015181600201556060820151816003015560808201518160040160006101000a81548160ff0219169083151502179055509050508373ffffffffffffffffffffffffffffffffffffffff163373ffffffffffffffffffffffffffffffffffffffff16827f723f73331eaee88eec7fc68ef60ab6ed15e4b90d0472b55eb92fa43910bab6dd8686604051610b97929190611599565b60405180910390a450505050565b60035481565b60026020528060005260406000206000915090508060000160009054906101000a900473ffffffffffffffffffffffffffffffffffffffff16908060010160009054906101000a900473ffffffffffffffffffffffffffffffffffffffff16908060020154908060030154908060040160009054906101000a900460ff16905085565b610c36610d6f565b600073ffffffffffffffffffffffffffffffffffffffff168173ffffffffffffffffffffffffffffffffffffffff1603610ca5576040517f08c379a0000000000000000000000000000000000000000000000000000000008152600401610c9c9061160e565b60405180910390fd5b80600460006101000a81548173ffffffffffffffffffffffffffffffffffffffff021916908373ffffffffffffffffffffffffffffffffffffffff16021790555050565b610cf1610d6f565b600073ffffffffffffffffffffffffffffffffffffffff168173ffffffffffffffffffffffffffffffffffffffff1603610d635760006040517f1e4fbdf7000000000000000000000000000000000000000000000000000000008152600401610d5a9190610f6b565b60405180910390fd5b610d6c81610df6565b50565b610d77610eba565b73ffffffffffffffffffffffffffffffffffffffff16610d9561090d565b73ffffffffffffffffffffffffffffffffffffffff1614610df457610db8610eba565b6040517f118cdaa7000000000000000000000000000000000000000000000000000000008152600401610deb9190610f6b565b60405180910390fd5b565b60008060009054906101000a900473ffffffffffffffffffffffffffffffffffffffff169050816000806101000a81548173ffffffffffffffffffffffffffffffffffffffff021916908373ffffffffffffffffffffffffffffffffffffffff1602179055508173ffffffffffffffffffffffffffffffffffffffff168173ffffffffffffffffffffffffffffffffffffffff167f8be0079c531659141344cd1fd0a4f28419497f9722a3daafe3b4186f6b6457e060405160405180910390a35050565b600033905090565b600080fd5b6000819050919050565b610eda81610ec7565b8114610ee557600080fd5b50565b600081359050610ef781610ed1565b92915050565b600060208284031215610f1357610f12610ec2565b5b6000610f2184828501610ee8565b91505092915050565b600073ffffffffffffffffffffffffffffffffffffffff82169050919050565b6000610f5582610f2a565b9050919050565b610f6581610f4a565b82525050565b6000602082019050610f806000830184610f5c565b92915050565b610f8f81610ec7565b82525050565b6000602082019050610faa6000830184610f86565b92915050565b610fb981610f4a565b8114610fc457600080fd5b50565b600081359050610fd681610fb0565b92915050565b600080600060608486031215610ff557610ff4610ec2565b5b600061100386828701610fc7565b935050602061101486828701610ee8565b925050604061102586828701610ee8565b9150509250925092565b60008115159050919050565b6110448161102f565b82525050565b600060a08201905061105f6000830188610f5c565b61106c6020830187610f5c565b6110796040830186610f86565b6110866060830185610f86565b611093608083018461103b565b9695505050505050565b6000602082840312156110b3576110b2610ec2565b5b60006110c184828501610fc7565b91505092915050565b600082825260208201905092915050565b7f4e6f742061637469766500000000000000000000000000000000000000000000600082015250565b6000611111600a836110ca565b915061111c826110db565b602082019050919050565b6000602082019050818103600083015261114081611104565b9050919050565b7f4e6f742073656c6c657200000000000000000000000000000000000000000000600082015250565b600061117d600a836110ca565b915061118882611147565b602082019050919050565b600060208201905081810360008301526111ac81611170565b9050919050565b60006060820190506111c86000830186610f5c565b6111d56020830185610f5c565b6111e26040830184610f86565b949350505050565b7f496e636f72726563742070726963650000000000000000000000000000000000600082015250565b6000611220600f836110ca565b915061122b826111ea565b602082019050919050565b6000602082019050818103600083015261124f81611213565b9050919050565b7f4e487b7100000000000000000000000000000000000000000000000000000000600052601160045260246000fd5b600061129082610ec7565b915061129b83610ec7565b92508282026112a981610ec7565b915082820484148315176112c0576112bf611256565b5b5092915050565b7f4e487b7100000000000000000000000000000000000000000000000000000000600052601260045260246000fd5b600061130182610ec7565b915061130c83610ec7565b92508261131c5761131b6112c7565b5b828204905092915050565b600061133282610ec7565b915061133d83610ec7565b925082820390508181111561135557611354611256565b5b92915050565b600081905092915050565b50565b600061137660008361135b565b915061138182611366565b600082019050919050565b600061139782611369565b9150819050919050565b7f5061796d656e74206661696c6564000000000000000000000000000000000000600082015250565b60006113d7600e836110ca565b91506113e2826113a1565b602082019050919050565b60006020820190508181036000830152611406816113ca565b9050919050565b7f466565207061796d656e74206661696c65640000000000000000000000000000600082015250565b60006114436012836110ca565b915061144e8261140d565b602082019050919050565b6000602082019050818103600083015261147281611436565b9050919050565b7f46656520746f6f20686967680000000000000000000000000000000000000000600082015250565b60006114af600c836110ca565b91506114ba82611479565b602082019050919050565b600060208201905081810360008301526114de816114a2565b9050919050565b7f5072696365206d757374206265203e2030000000000000000000000000000000600082015250565b600061151b6011836110ca565b9150611526826114e5565b602082019050919050565b6000602082019050818103600083015261154a8161150e565b9050919050565b600061155c82610ec7565b91507fffffffffffffffffffffffffffffffffffffffffffffffffffffffffffffffff820361158e5761158d611256565b5b600182019050919050565b60006040820190506115ae6000830185610f86565b6115bb6020830184610f86565b9392505050565b7f5a65726f20616464726573730000000000000000000000000000000000000000600082015250565b60006115f8600c836110ca565b9150611603826115c2565b602082019050919050565b60006020820190508181036000830152611627816115eb565b905091905056fea26469706673582212204e9681f2c23ad6e4f8284cffa2a2e2ad25b6daf65dd43964ecd8d4f76020068164736f6c63430008140033",
  "linkReferences": {},
  "deployedLinkReferences": {}
}